{
  "address": "0x0a552F2823e460ea471447Ad2E6479d1743e4AD7",
  "abi": [
    {
      "inputs": [
        {
          "internalType": "string",
          "name": "_name",
          "type": "string"
        },
        {
          "internalType": "string",
          "name": "_description",
          "type": "string"
        },
        {
          "internalType": "uint256",
          "name": "_min",
          "type": "uint256"
        },
        {
          "internalType": "uint256",
          "name": "_duration",
          "type": "uint256"
        }
      ],
      "name": "createAuction",
      "outputs": [],
      "stateMutability": "nonpayable",
      "type": "function"
    },
    {
      "inputs": [
        {
          "internalType": "uint256",
          "name": "_auctionId",
          "type": "uint256"
        }
      ],
      "name": "createOffer",
      "outputs": [],
      "stateMutability": "payable",
      "type": "function"
    },
    {
      "inputs": [],
      "name": "getAuction",
      "outputs": [
        {
          "components": [
            {
              "internalType": "uint256",
              "name": "id",
              "type": "uint256"
            },
            {
              "internalType": "address payable",
              "name": "seller",
              "type": "address"
            },
            {
              "internalType": "string",
              "name": "name",
              "type": "string"
            },
            {
              "internalType": "string",
              "name": "description",
              "type": "string"
            },
            {
              "internalType": "uint256",
              "name": "min",
              "type": "uint256"
            },
            {
              "internalType": "uint256",
              "name": "end",
              "type": "uint256"
            },
            {
              "internalType": "uint256",
              "name": "bestOfferId",
              "type": "uint256"
            },
            {
              "internalType": "uint256[]",
              "name": "offerIds",
              "type": "uint256[]"
            }
          ],
          "internalType": "struct Ebay.Auction[]",
          "name": "",
          "type": "tuple[]"
        }
      ],
      "stateMutability": "view",
      "type": "function"
    },
    {
      "inputs": [
        {
          "internalType": "address",
          "name": "_user",
          "type": "address"
        }
      ],
      "name": "getUserAuctions",
      "outputs": [
        {
          "components": [
            {
              "internalType": "uint256",
              "name": "id",
              "type": "uint256"
            },
            {
              "internalType": "address payable",
              "name": "seller",
              "type": "address"
            },
            {
              "internalType": "string",
              "name": "name",
              "type": "string"
            },
            {
              "internalType": "string",
              "name": "description",
              "type": "string"
            },
            {
              "internalType": "uint256",
              "name": "min",
              "type": "uint256"
            },
            {
              "internalType": "uint256",
              "name": "end",
              "type": "uint256"
            },
            {
              "internalType": "uint256",
              "name": "bestOfferId",
              "type": "uint256"
            },
            {
              "internalType": "uint256[]",
              "name": "offerIds",
              "type": "uint256[]"
            }
          ],
          "internalType": "struct Ebay.Auction[]",
          "name": "",
          "type": "tuple[]"
        }
      ],
      "stateMutability": "view",
      "type": "function"
    },
    {
      "inputs": [
        {
          "internalType": "address",
          "name": "_user",
          "type": "address"
        }
      ],
      "name": "getUserOffers",
      "outputs": [
        {
          "components": [
            {
              "internalType": "uint256",
              "name": "id",
              "type": "uint256"
            },
            {
              "internalType": "uint256",
              "name": "auctionId",
              "type": "uint256"
            },
            {
              "internalType": "address payable",
              "name": "buyer",
              "type": "address"
            },
            {
              "internalType": "uint256",
              "name": "price",
              "type": "uint256"
            }
          ],
          "internalType": "struct Ebay.Offer[]",
          "name": "",
          "type": "tuple[]"
        }
      ],
      "stateMutability": "view",
      "type": "function"
    },
    {
      "inputs": [
        {
          "internalType": "uint256",
          "name": "_auctionId",
          "type": "uint256"
        }
      ],
      "name": "trade",
      "outputs": [],
      "stateMutability": "nonpayable",
      "type": "function"
    }
  ],
  "transactionHash": "0x4f9ffdfa8e2a2b506886ca3750f50a5cadbba62c2c3af66ecc9b3d8900a2c8a7",
  "args": [],
  "numDeployments": 1,
  "solcInputHash": "edca9905614a13cdf7353e5b0551fe18",
  "bytecode": "0x60806040526001600455600160055534801561001a57600080fd5b50611d5d8061002a6000396000f3fe6080604052600436106100555760003560e01c806361e2db551461005a578063661d2c2c146100835780637327df25146100c0578063a269993d146100eb578063df1dd82614610107578063ff3ad0b414610130575b600080fd5b34801561006657600080fd5b50610081600480360381019061007c9190611091565b61016d565b005b34801561008f57600080fd5b506100aa60048036038101906100a59190611196565b61048e565b6040516100b791906112f7565b60405180910390f35b3480156100cc57600080fd5b506100d561062f565b6040516100e291906115d8565b60405180910390f35b610105600480360381019061010091906115fa565b610714565b005b34801561011357600080fd5b5061012e600480360381019061012991906115fa565b6109a6565b005b34801561013c57600080fd5b5061015760048036038101906101529190611196565b610bc2565b60405161016491906115d8565b60405180910390f35b600082116101b0576040517f08c379a00000000000000000000000000000000000000000000000000000000081526004016101a790611684565b60405180910390fd5b62015180811180156101c45750620d2f0081105b610203576040517f08c379a00000000000000000000000000000000000000000000000000000000081526004016101fa90611716565b60405180910390fd5b60008067ffffffffffffffff81111561021f5761021e611736565b5b60405190808252806020026020018201604052801561024d5781602001602082028036833780820191505090505b50905060405180610100016040528060045481526020013373ffffffffffffffffffffffffffffffffffffffff16815260200188888080601f016020809104026020016040519081016040528093929190818152602001838380828437600081840152601f19601f82011690508083019250505050505050815260200186868080601f016020809104026020016040519081016040528093929190818152602001838380828437600081840152601f19601f82011690508083019250505050505050815260200184815260200183426103269190611794565b8152602001600081526020018281525060008060045481526020019081526020016000206000820151816000015560208201518160010160006101000a81548173ffffffffffffffffffffffffffffffffffffffff021916908373ffffffffffffffffffffffffffffffffffffffff16021790555060408201518160020190816103b091906119d4565b5060608201518160030190816103c691906119d4565b506080820151816004015560a0820151816005015560c0820151816006015560e0820151816007019080519060200190610401929190610ee9565b50905050600260003373ffffffffffffffffffffffffffffffffffffffff1673ffffffffffffffffffffffffffffffffffffffff16815260200190815260200160002060045490806001815401808255809150506001900390600052602060002001600090919091909150556004600081548092919061048090611aa6565b919050555050505050505050565b60606000600360008473ffffffffffffffffffffffffffffffffffffffff1673ffffffffffffffffffffffffffffffffffffffff16815260200190815260200160002090506000818054905067ffffffffffffffff8111156104f3576104f2611736565b5b60405190808252806020026020018201604052801561052c57816020015b610519610f36565b8152602001906001900390816105115790505b50905060005b828054905081101561062457600083828154811061055357610552611aee565b5b906000526020600020015490506001600082815260200190815260200160002060405180608001604052908160008201548152602001600182015481526020016002820160009054906101000a900473ffffffffffffffffffffffffffffffffffffffff1673ffffffffffffffffffffffffffffffffffffffff1673ffffffffffffffffffffffffffffffffffffffff16815260200160038201548152505083838151811061060557610604611aee565b5b602002602001018190525050808061061c90611aa6565b915050610532565b508092505050919050565b6060600060016004546106429190611b1d565b67ffffffffffffffff81111561065b5761065a611736565b5b60405190808252806020026020018201604052801561069457816020015b610681610f74565b8152602001906001900390816106795790505b5090506000600190505b60016004546106ad9190611794565b81101561070c578181815181106106c7576106c6611aee565b5b6020026020010151826001836106dd9190611b1d565b815181106106ee576106ed611aee565b5b6020026020010181905250808061070490611aa6565b91505061069e565b508091505090565b80600081118015610726575060045481105b610765576040517f08c379a000000000000000000000000000000000000000000000000000000000815260040161075c90611b9d565b60405180910390fd5b60008060008481526020019081526020016000209050600060016000836006015481526020019081526020016000209050816005015442106107dc576040517f08c379a00000000000000000000000000000000000000000000000000000000081526004016107d390611c09565b60405180910390fd5b816004015434101580156107f35750806003015434115b610832576040517f08c379a000000000000000000000000000000000000000000000000000000000815260040161082990611c9b565b60405180910390fd5b6005548260060181905550816007016005549080600181540180825580915050600190039060005260206000200160009091909190915055604051806080016040528060055481526020018581526020013373ffffffffffffffffffffffffffffffffffffffff16815260200134815250600160006005548152602001908152602001600020600082015181600001556020820151816001015560408201518160020160006101000a81548173ffffffffffffffffffffffffffffffffffffffff021916908373ffffffffffffffffffffffffffffffffffffffff16021790555060608201518160030155905050600360003373ffffffffffffffffffffffffffffffffffffffff1673ffffffffffffffffffffffffffffffffffffffff16815260200190815260200160002060055490806001815401808255809150506001900390600052602060002001600090919091909150556005600081548092919061099b90611aa6565b919050555050505050565b806000811180156109b8575060045481105b6109f7576040517f08c379a00000000000000000000000000000000000000000000000000000000081526004016109ee90611b9d565b60405180910390fd5b6000806000848152602001908152602001600020905060006001600083600601548152602001908152602001600020905081600501544211610a6e576040517f08c379a0000000000000000000000000000000000000000000000000000000008152600401610a6590611d07565b60405180910390fd5b60005b8260070180549050811015610b4c576000836007018281548110610a9857610a97611aee565b5b9060005260206000200154905083600601548114610b385760006001600083815260200190815260200160002090508060020160009054906101000a900473ffffffffffffffffffffffffffffffffffffffff1673ffffffffffffffffffffffffffffffffffffffff166108fc82600301549081150290604051600060405180830381858888f19350505050158015610b35573d6000803e3d6000fd5b50505b508080610b4490611aa6565b915050610a71565b508160010160009054906101000a900473ffffffffffffffffffffffffffffffffffffffff1673ffffffffffffffffffffffffffffffffffffffff166108fc82600301549081150290604051600060405180830381858888f19350505050158015610bbb573d6000803e3d6000fd5b5050505050565b60606000600260008473ffffffffffffffffffffffffffffffffffffffff1673ffffffffffffffffffffffffffffffffffffffff16815260200190815260200160002090506000818054905067ffffffffffffffff811115610c2757610c26611736565b5b604051908082528060200260200182016040528015610c6057816020015b610c4d610f74565b815260200190600190039081610c455790505b50905060005b8280549050811015610ede576000838281548110610c8757610c86611aee565b5b9060005260206000200154905060008082815260200190815260200160002060405180610100016040529081600082015481526020016001820160009054906101000a900473ffffffffffffffffffffffffffffffffffffffff1673ffffffffffffffffffffffffffffffffffffffff1673ffffffffffffffffffffffffffffffffffffffff168152602001600282018054610d22906117f7565b80601f0160208091040260200160405190810160405280929190818152602001828054610d4e906117f7565b8015610d9b5780601f10610d7057610100808354040283529160200191610d9b565b820191906000526020600020905b815481529060010190602001808311610d7e57829003601f168201915b50505050508152602001600382018054610db4906117f7565b80601f0160208091040260200160405190810160405280929190818152602001828054610de0906117f7565b8015610e2d5780601f10610e0257610100808354040283529160200191610e2d565b820191906000526020600020905b815481529060010190602001808311610e1057829003601f168201915b5050505050815260200160048201548152602001600582015481526020016006820154815260200160078201805480602002602001604051908101604052809291908181526020018280548015610ea357602002820191906000526020600020905b815481526020019060010190808311610e8f575b505050505081525050838381518110610ebf57610ebe611aee565b5b6020026020010181905250508080610ed690611aa6565b915050610c66565b508092505050919050565b828054828255906000526020600020908101928215610f25579160200282015b82811115610f24578251825591602001919060010190610f09565b5b509050610f329190610fcf565b5090565b60405180608001604052806000815260200160008152602001600073ffffffffffffffffffffffffffffffffffffffff168152602001600081525090565b60405180610100016040528060008152602001600073ffffffffffffffffffffffffffffffffffffffff1681526020016060815260200160608152602001600081526020016000815260200160008152602001606081525090565b5b80821115610fe8576000816000905550600101610fd0565b5090565b600080fd5b600080fd5b600080fd5b600080fd5b600080fd5b60008083601f84011261101b5761101a610ff6565b5b8235905067ffffffffffffffff81111561103857611037610ffb565b5b60208301915083600182028301111561105457611053611000565b5b9250929050565b6000819050919050565b61106e8161105b565b811461107957600080fd5b50565b60008135905061108b81611065565b92915050565b600080600080600080608087890312156110ae576110ad610fec565b5b600087013567ffffffffffffffff8111156110cc576110cb610ff1565b5b6110d889828a01611005565b9650965050602087013567ffffffffffffffff8111156110fb576110fa610ff1565b5b61110789828a01611005565b9450945050604061111a89828a0161107c565b925050606061112b89828a0161107c565b9150509295509295509295565b600073ffffffffffffffffffffffffffffffffffffffff82169050919050565b600061116382611138565b9050919050565b61117381611158565b811461117e57600080fd5b50565b6000813590506111908161116a565b92915050565b6000602082840312156111ac576111ab610fec565b5b60006111ba84828501611181565b91505092915050565b600081519050919050565b600082825260208201905092915050565b6000819050602082019050919050565b6111f88161105b565b82525050565b600061120982611138565b9050919050565b611219816111fe565b82525050565b60808201600082015161123560008501826111ef565b50602082015161124860208501826111ef565b50604082015161125b6040850182611210565b50606082015161126e60608501826111ef565b50505050565b6000611280838361121f565b60808301905092915050565b6000602082019050919050565b60006112a4826111c3565b6112ae81856111ce565b93506112b9836111df565b8060005b838110156112ea5781516112d18882611274565b97506112dc8361128c565b9250506001810190506112bd565b5085935050505092915050565b600060208201905081810360008301526113118184611299565b905092915050565b600081519050919050565b600082825260208201905092915050565b6000819050602082019050919050565b600081519050919050565b600082825260208201905092915050565b60005b8381101561137f578082015181840152602081019050611364565b60008484015250505050565b6000601f19601f8301169050919050565b60006113a782611345565b6113b18185611350565b93506113c1818560208601611361565b6113ca8161138b565b840191505092915050565b600081519050919050565b600082825260208201905092915050565b6000819050602082019050919050565b600061140d83836111ef565b60208301905092915050565b6000602082019050919050565b6000611431826113d5565b61143b81856113e0565b9350611446836113f1565b8060005b8381101561147757815161145e8882611401565b975061146983611419565b92505060018101905061144a565b5085935050505092915050565b60006101008301600083015161149d60008601826111ef565b5060208301516114b06020860182611210565b50604083015184820360408601526114c8828261139c565b915050606083015184820360608601526114e2828261139c565b91505060808301516114f760808601826111ef565b5060a083015161150a60a08601826111ef565b5060c083015161151d60c08601826111ef565b5060e083015184820360e08601526115358282611426565b9150508091505092915050565b600061154e8383611484565b905092915050565b6000602082019050919050565b600061156e82611319565b6115788185611324565b93508360208202850161158a85611335565b8060005b858110156115c657848403895281516115a78582611542565b94506115b283611556565b925060208a0199505060018101905061158e565b50829750879550505050505092915050565b600060208201905081810360008301526115f28184611563565b905092915050565b6000602082840312156116105761160f610fec565b5b600061161e8482850161107c565b91505092915050565b600082825260208201905092915050565b7f6d696e206d7573742062652067726561746572207468616e2030000000000000600082015250565b600061166e601a83611627565b915061167982611638565b602082019050919050565b6000602082019050818103600083015261169d81611661565b9050919050565b7f6475726174696f6e206d75737420626520636f6d70726973656420626574776560008201527f656e203120746f20313020646179730000000000000000000000000000000000602082015250565b6000611700602f83611627565b915061170b826116a4565b604082019050919050565b6000602082019050818103600083015261172f816116f3565b9050919050565b7f4e487b7100000000000000000000000000000000000000000000000000000000600052604160045260246000fd5b7f4e487b7100000000000000000000000000000000000000000000000000000000600052601160045260246000fd5b600061179f8261105b565b91506117aa8361105b565b92508282019050808211156117c2576117c1611765565b5b92915050565b7f4e487b7100000000000000000000000000000000000000000000000000000000600052602260045260246000fd5b6000600282049050600182168061180f57607f821691505b602082108103611822576118216117c8565b5b50919050565b60008190508160005260206000209050919050565b60006020601f8301049050919050565b600082821b905092915050565b60006008830261188a7fffffffffffffffffffffffffffffffffffffffffffffffffffffffffffffffff8261184d565b611894868361184d565b95508019841693508086168417925050509392505050565b6000819050919050565b60006118d16118cc6118c78461105b565b6118ac565b61105b565b9050919050565b6000819050919050565b6118eb836118b6565b6118ff6118f7826118d8565b84845461185a565b825550505050565b600090565b611914611907565b61191f8184846118e2565b505050565b5b818110156119435761193860008261190c565b600181019050611925565b5050565b601f8211156119885761195981611828565b6119628461183d565b81016020851015611971578190505b61198561197d8561183d565b830182611924565b50505b505050565b600082821c905092915050565b60006119ab6000198460080261198d565b1980831691505092915050565b60006119c4838361199a565b9150826002028217905092915050565b6119dd82611345565b67ffffffffffffffff8111156119f6576119f5611736565b5b611a0082546117f7565b611a0b828285611947565b600060209050601f831160018114611a3e5760008415611a2c578287015190505b611a3685826119b8565b865550611a9e565b601f198416611a4c86611828565b60005b82811015611a7457848901518255600182019150602085019450602081019050611a4f565b86831015611a915784890151611a8d601f89168261199a565b8355505b6001600288020188555050505b505050505050565b6000611ab18261105b565b91507fffffffffffffffffffffffffffffffffffffffffffffffffffffffffffffffff8203611ae357611ae2611765565b5b600182019050919050565b7f4e487b7100000000000000000000000000000000000000000000000000000000600052603260045260246000fd5b6000611b288261105b565b9150611b338361105b565b9250828203905081811115611b4b57611b4a611765565b5b92915050565b7f61756374696f6e20646f6573206e6f7420657869737421000000000000000000600082015250565b6000611b87601783611627565b9150611b9282611b51565b602082019050919050565b60006020820190508181036000830152611bb681611b7a565b9050919050565b7f61756374696f6e20686173206578706972656400000000000000000000000000600082015250565b6000611bf3601383611627565b9150611bfe82611bbd565b602082019050919050565b60006020820190508181036000830152611c2281611be6565b9050919050565b7f6d73672076616c7565206d757374206265207375706572696f7220746f206d6960008201527f6e20616e6420626573744f666665720000000000000000000000000000000000602082015250565b6000611c85602f83611627565b9150611c9082611c29565b604082019050919050565b60006020820190508181036000830152611cb481611c78565b9050919050565b7f61756374696f6e206973207374696c6c20616374697665000000000000000000600082015250565b6000611cf1601783611627565b9150611cfc82611cbb565b602082019050919050565b60006020820190508181036000830152611d2081611ce4565b905091905056fea2646970667358221220efc5c5a514682abff80f8a7d2ccbc64b380595c5ae3f9f5e37b3c26766d1615964736f6c63430008110033",
  "devdoc": {
    "kind": "dev",
    "methods": {},
    "version": 1
  },
  "userdoc": {
    "kind": "user",
    "methods": {},
    "version": 1
  },
  "storageLayout": {
    "storage": [
      {
        "astId": 33,
        "contract": "contracts/Ebay.sol:Ebay",
        "label": "auctions",
        "offset": 0,
        "slot": "0",
        "type": "t_mapping(t_uint256,t_struct(Auction)19_storage)"
      },
      {
        "astId": 38,
        "contract": "contracts/Ebay.sol:Ebay",
        "label": "offers",
        "offset": 0,
        "slot": "1",
        "type": "t_mapping(t_uint256,t_struct(Offer)28_storage)"
      },
      {
        "astId": 43,
        "contract": "contracts/Ebay.sol:Ebay",
        "label": "userAuctions",
        "offset": 0,
        "slot": "2",
        "type": "t_mapping(t_address,t_array(t_uint256)dyn_storage)"
      },
      {
        "astId": 48,
        "contract": "contracts/Ebay.sol:Ebay",
        "label": "userOffers",
        "offset": 0,
        "slot": "3",
        "type": "t_mapping(t_address,t_array(t_uint256)dyn_storage)"
      },
      {
        "astId": 51,
        "contract": "contracts/Ebay.sol:Ebay",
        "label": "nextAuctionId",
        "offset": 0,
        "slot": "4",
        "type": "t_uint256"
      },
      {
        "astId": 54,
        "contract": "contracts/Ebay.sol:Ebay",
        "label": "nextOfferId",
        "offset": 0,
        "slot": "5",
        "type": "t_uint256"
      }
    ],
    "types": {
      "t_address": {
        "encoding": "inplace",
        "label": "address",
        "numberOfBytes": "20"
      },
      "t_address_payable": {
        "encoding": "inplace",
        "label": "address payable",
        "numberOfBytes": "20"
      },
      "t_array(t_uint256)dyn_storage": {
        "base": "t_uint256",
        "encoding": "dynamic_array",
        "label": "uint256[]",
        "numberOfBytes": "32"
      },
      "t_mapping(t_address,t_array(t_uint256)dyn_storage)": {
        "encoding": "mapping",
        "key": "t_address",
        "label": "mapping(address => uint256[])",
        "numberOfBytes": "32",
        "value": "t_array(t_uint256)dyn_storage"
      },
      "t_mapping(t_uint256,t_struct(Auction)19_storage)": {
        "encoding": "mapping",
        "key": "t_uint256",
        "label": "mapping(uint256 => struct Ebay.Auction)",
        "numberOfBytes": "32",
        "value": "t_struct(Auction)19_storage"
      },
      "t_mapping(t_uint256,t_struct(Offer)28_storage)": {
        "encoding": "mapping",
        "key": "t_uint256",
        "label": "mapping(uint256 => struct Ebay.Offer)",
        "numberOfBytes": "32",
        "value": "t_struct(Offer)28_storage"
      },
      "t_string_storage": {
        "encoding": "bytes",
        "label": "string",
        "numberOfBytes": "32"
      },
      "t_struct(Auction)19_storage": {
        "encoding": "inplace",
        "label": "struct Ebay.Auction",
        "members": [
          {
            "astId": 3,
            "contract": "contracts/Ebay.sol:Ebay",
            "label": "id",
            "offset": 0,
            "slot": "0",
            "type": "t_uint256"
          },
          {
            "astId": 5,
            "contract": "contracts/Ebay.sol:Ebay",
            "label": "seller",
            "offset": 0,
            "slot": "1",
            "type": "t_address_payable"
          },
          {
            "astId": 7,
            "contract": "contracts/Ebay.sol:Ebay",
            "label": "name",
            "offset": 0,
            "slot": "2",
            "type": "t_string_storage"
          },
          {
            "astId": 9,
            "contract": "contracts/Ebay.sol:Ebay",
            "label": "description",
            "offset": 0,
            "slot": "3",
            "type": "t_string_storage"
          },
          {
            "astId": 11,
            "contract": "contracts/Ebay.sol:Ebay",
            "label": "min",
            "offset": 0,
            "slot": "4",
            "type": "t_uint256"
          },
          {
            "astId": 13,
            "contract": "contracts/Ebay.sol:Ebay",
            "label": "end",
            "offset": 0,
            "slot": "5",
            "type": "t_uint256"
          },
          {
            "astId": 15,
            "contract": "contracts/Ebay.sol:Ebay",
            "label": "bestOfferId",
            "offset": 0,
            "slot": "6",
            "type": "t_uint256"
          },
          {
            "astId": 18,
            "contract": "contracts/Ebay.sol:Ebay",
            "label": "offerIds",
            "offset": 0,
            "slot": "7",
            "type": "t_array(t_uint256)dyn_storage"
          }
        ],
        "numberOfBytes": "256"
      },
      "t_struct(Offer)28_storage": {
        "encoding": "inplace",
        "label": "struct Ebay.Offer",
        "members": [
          {
            "astId": 21,
            "contract": "contracts/Ebay.sol:Ebay",
            "label": "id",
            "offset": 0,
            "slot": "0",
            "type": "t_uint256"
          },
          {
            "astId": 23,
            "contract": "contracts/Ebay.sol:Ebay",
            "label": "auctionId",
            "offset": 0,
            "slot": "1",
            "type": "t_uint256"
          },
          {
            "astId": 25,
            "contract": "contracts/Ebay.sol:Ebay",
            "label": "buyer",
            "offset": 0,
            "slot": "2",
            "type": "t_address_payable"
          },
          {
            "astId": 27,
            "contract": "contracts/Ebay.sol:Ebay",
            "label": "price",
            "offset": 0,
            "slot": "3",
            "type": "t_uint256"
          }
        ],
        "numberOfBytes": "128"
      },
      "t_uint256": {
        "encoding": "inplace",
        "label": "uint256",
        "numberOfBytes": "32"
      }
    }
  }
}